:100000000C942A000C94650B0C94980B0C94CB0B5D
:100010000C9447000C9447000C94C5070C944700BF
:100020000C9447000C9447000C94180A0C94A909EE
:100030000C9447000C9447000C9447000C94470024
:100040000C9447000C9447000C9447000C94470014
:100050000C94470011241FBECFE5D8E0DEBFCDBF12
:1000600012E0A0E6B0E0E0E4FDE402C005900D92ED
:10007000A830B107D9F712E0A8E0B2E001C01D92A4
:10008000A433B107E1F70E9426230C949E260C941A
:100090000000EF92FF920F931F937B018C0120E0F1
:1000A00030E040E05FE40E94F50388238CF0C80153
:1000B000B70120E030E040E05FE40E94C1010E940F
:1000C00055049B01AC01205030404040504806C0D0
:1000D000C801B7010E9455049B01AC01B901CA01D6
:1000E0001F910F91FF90EF900895A0E0B0E0EBE733
:1000F000F0E00C94EB25DC012B01FA019C9192308D
:1001000008F439C1EB018881823008F433C194309E
:1001100069F4843009F02FC111969C91119789815F
:10012000981709F428C1A6EDB0E025C1843009F480
:1001300021C18230A9F4923009F01DC19A01AD01AC
:1001400088E0EA010990AE01E90109929E0181501F
:10015000C1F7E201898111969C918923818308C1AD
:10016000923009F407C112962D903C901397EB0141
:100170008A819B811496AD90BD90CD90DC901797AD
:10018000EC80FD800E811F819101281B390BB90184
:1001900037FF04C066277727621B730B6032710537
:1001A0000CF061C0121613066CF537014801062EDB
:1001B00004C096948794779467940A94D2F721E0C8
:1001C00030E040E050E004C0220F331F441F551FB1
:1001D0006A95D2F721503040404050402E213F21B7
:1001E00040235123211531054105510521F021E01E
:1001F00030E040E050E079018A01E628F72808293C
:1002000019293CC0232BD1F1260E371E350146019A
:10021000062E04C096948794779467940A94D2F734
:1002200021E030E040E050E004C0220F331F441FC3
:10023000551F6A95D2F721503040404050402A2146
:100240003B214C215D21211531054105510521F04E
:1002500021E030E040E050E059016A01A628B728CB
:10026000C828D9280BC0821593052CF01C01AA249C
:10027000BB24650103C0EE24FF24870111969C91E5
:10028000D20111968C91981709F445C0992339F041
:10029000A80197012A193B094C095D0906C0A6016E
:1002A00095012E193F09400B510B57FD08C01182D3
:1002B0003382228224833583468357831DC081E0A5
:1002C00081833382228288279927DC01821B930B4A
:1002D000A40BB50B84839583A683B7830DC0220F2F
:1002E000331F441F551F24833583468357838281E0
:1002F000938101979383828324813581468157813D
:10030000DA01C9010197A109B1098F5F9F4FAF4F72
:10031000BF4328F30BC0918333822282EA0CFB1C7B
:100320000C1D1D1DE482F5820683178383E0808304
:10033000248135814681578157FF1AC0C901AA27F8
:1003400097FDA095BA2F81709070A070B0705695EF
:10035000479537952795822B932BA42BB52B848318
:100360009583A683B7838281938101969383828349
:10037000DF0101C0D201CD01CDB7DEB7E2E10C94BF
:100380000726A0E2B0E0E7ECF1E00C94F7256983E2
:100390007A838B839C832D833E834F835887E9E048
:1003A000EE2EF12CEC0EFD1ECE010196B7010E943F
:1003B00046068E010F5E1F4FCE010596B8010E94C2
:1003C00046068A8991E089278A8BC701B801AE0168
:1003D000475E5F4F0E9475000E947105A096E6E09F
:1003E0000C941326A0E2B0E0E8EFF1E00C94F725BE
:1003F00069837A838B839C832D833E834F835887C5
:10040000F9E0EF2EF12CEC0EFD1ECE010196B701A6
:100410000E9446068E010F5E1F4FCE010596B80161
:100420000E944606C701B801AE01475E5F4F0E94B9
:1004300075000E947105A096E6E00C941326A0E2D8
:10044000B0E0E5E2F2E00C94EB2569837A838B83DC
:100450009C832D833E834F835887CE010196BE0136
:10046000675F7F4F0E944606CE010596BE016F5E14
:100470007F4F0E9446069985923088F089898230A4
:10048000C8F0943019F4823051F404C0843029F457
:10049000923081F486ED90E0C6C0923049F420E0BD
:1004A0009A858A89981321E02A87CE010996BBC0D4
:1004B000823049F420E09A858A89981321E02A8BBA
:1004C000CE014196B0C02D843E844F8458886D88FB
:1004D0007E888F88988CEE24FF248701AA24BB2471
:1004E000650140E050E060E070E0E0E0F0E0C10174
:1004F00081709070892BE9F0E60CF71C081D191D1E
:100500009A01AB012A0D3B1D4C1D5D1D80E090E062
:10051000A0E0B0E0E614F7040805190520F481E036
:1005200090E0A0E0B0E0BA01A901480F591F6A1F8E
:100530007B1FAA0CBB1CCC1CDD1C97FE08C081E0F5
:1005400090E0A0E0B0E0A82AB92ACA2ADB2A3196B6
:10055000E032F10549F0660C771C881C991C569412
:10056000479437942794C3CFFA85EA892B893C892D
:100570008B859C85280F391F2E5F3F4F17C0CA01FE
:1005800081709070892B61F016950795F794E79428
:1005900080E090E0A0E0B0E8E82AF92A0A2B1B2BC3
:1005A00076956795579547952F5F3F4F77FDE7CF36
:1005B0000CC0440F551F661F771F17FD4160EE0CDE
:1005C000FF1C001F111F21503040403090E05907A0
:1005D00090E0690790E4790760F32B8F3C8FDB0193
:1005E000CA018F779070A070B07080349105A1051A
:1005F000B10561F447FD0AC0E114F10401051105DC
:1006000029F0405C5F4F6F4F7F4F40781A8EFE1786
:1006100011F081E08A8F4D8F5E8F6F8F78A383E01A
:10062000898FCE0149960E947105A096E2E10C9453
:100630000726A8E1B0E0EFE1F3E00C94F32569832D
:100640007A838B839C832D833E834F835887B9E0C5
:10065000EB2EF12CEC0EFD1ECE010196B7010E948F
:1006600046068E010F5E1F4FCE010596B8010E940F
:1006700046062985223008F47EC03989323010F4CC
:10068000B8017CC08A859A8989278A87243011F02D
:10069000223031F4231709F06EC066ED70E06EC0B1
:1006A000343039F41D861E861F86188A1C861B86E8
:1006B00004C0323021F484E08987B7015FC02B8504
:1006C0003C858B899C89281B390B3C872B87ED84C3
:1006D000FE840F851889AD88BE88CF88D88CEA142F
:1006E000FB040C051D0540F4EE0CFF1C001F111F40
:1006F000215030403C872B8720E030E040E050E044
:1007000080E090E0A0E0B0E460E070E0EA14FB0478
:100710000C051D0540F0282B392B4A2B5B2BEA18C2
:10072000FB080C091D09B695A79597958795EE0CC2
:10073000FF1C001F111F6F5F7F4F6F31710531F775
:10074000DA01C9018F779070A070B0708034910584
:10075000A105B10561F427FD0AC0E114F10401050A
:10076000110529F0205C3F4F4F4F5F4F20782D87B8
:100770003E874F87588BBE01675F7F4FCB010E943A
:1007800071056896EAE00C940F26A8E1B0E0EBEC66
:10079000F3E00C94F72569837A838B839C832D8304
:1007A0003E834F83588789E0E82EF12CEC0EFD1E26
:1007B000CE010196B7010E9446068E010F5E1F4FC3
:1007C000CE010596B8010E9446068985823040F028
:1007D0008989823028F0C701B8010E94BE0601C095
:1007E0008FEF6896E6E00C941326A8E1B0E0EBEFFB
:1007F000F3E00C94F72569837A838B839C832D83A4
:100800003E834F83588789E0E82EF12CEC0EFD1EC5
:10081000CE010196B7010E9446068E010F5E1F4F62
:10082000CE010596B8010E9446068985823040F0C7
:100830008989823028F0C701B8010E94BE0601C034
:100840008FEF6896E6E00C941326A8E1B0E0EBE2A7
:10085000F4E00C94F72569837A838B839C832D8342
:100860003E834F83588789E0E82EF12CEC0EFD1E65
:10087000CE010196B7010E9446068E010F5E1F4F02
:10088000CE010596B8010E9446068985823040F067
:100890008989823028F0C701B8010E94BE0601C0D4
:1008A00081E06896E6E00C941326ACE0B0E0EBE55E
:1008B000F4E00C94FB2569837A838B839C83CE01BF
:1008C0000196BE016B5F7F4F0E9446068D8182308C
:1008D00061F1823050F1843021F48E81882351F10E
:1008E0002EC02F81388537FD20C06E812F31310514
:1008F0001CF06623F9F023C08EE190E0821B930B7D
:1009000029853A854B855C8504C056954795379572
:1009100027958A95D2F76623B1F05095409530958A
:1009200021953F4F4F4F5F4F0EC020E030E040E039
:1009300050E009C02FEF3FEF4FEF5FE704C020E02A
:1009400030E040E050E8B901CA012C96E2E00C9496
:100950001726A8E0B0E0EFEAF4E00C94F3257B0161
:100960008C01611571058105910519F482E0898377
:1009700060C083E089838EE1C82ED12CDC82CB82DB
:10098000ED82FE820F831887C801B7010E942205FD
:10099000FC013197F7FF3BC0222733272E1B3F0B6B
:1009A00057016801022E04C0D694C794B794A79447
:1009B0000A94D2F740E050E060E070E081E090E01F
:1009C000A0E0B0E004C0880F991FAA1FBB1F2A95A2
:1009D000D2F70197A109B1098E219F21A023B1234C
:1009E0000097A105B10521F041E050E060E070E022
:1009F0004A295B296C297D294D835E836F83788723
:100A00008EE190E08E1B9F0B9C838B8312C03097EE
:100A100081F00E2E04C0EE0CFF1C001F111F0A9463
:100A2000D2F7ED82FE820F831887CE1ADF0ADC82AE
:100A3000CB821A82CE0101960E9471052896EAE0C7
:100A40000C940F26EF92FF920F931F937B018C0162
:100A500080E0E81680E0F80681E0080780E01807EB
:100A600088F48FEFE816F1040105110531F028F044
:100A700088E090E0A0E0B0E017C080E090E0A0E067
:100A8000B0E012C080E0E81680E0F80680E00807D9
:100A900081E0180728F088E190E0A0E0B0E004C011
:100AA00080E190E0A0E0B0E020E230E040E050E003
:100AB000281B390B4A0B5B0B04C016950795F7945E
:100AC000E7948A95D2F7F701E252FF4F8081281B05
:100AD000310941095109C9011F910F91FF90EF9010
:100AE0000895DF92EF92FF920F931F93FC01E48031
:100AF000F58006811781D1808081823048F480E0C2
:100B000090E0A0E1B0E0E82AF92A0A2B1B2BA5C04F
:100B1000843009F49FC0823021F4EE24FF24870141
:100B200005C0E114F1040105110519F4E0E0F0E05D
:100B300096C0628173819FEF623879070CF05BC0C9
:100B400022E83FEF261B370B2A3131052CF020E03D
:100B500030E040E050E02AC0B801A701022E04C0F6
:100B600076956795579547950A94D2F781E090E07E
:100B7000A0E0B0E004C0880F991FAA1FBB1F2A95F0
:100B8000D2F70197A109B1098E219F21A023B1239A
:100B90000097A105B10521F081E090E0A0E0B0E070
:100BA0009A01AB01282B392B4A2B5B2BDA01C901A7
:100BB0008F779070A070B07080349105A105B10559
:100BC00039F427FF09C0205C3F4F4F4F5F4F04C0EF
:100BD000215C3F4F4F4F5F4FE0E0F0E02030A0E05E
:100BE0003A07A0E04A07A0E45A0710F0E1E0F0E07D
:100BF00079018A0127C06038710564F5FB01E1586D
:100C0000FF4FD801C7018F779070A070B07080340B
:100C10009105A105B10539F4E7FE0DC080E490E02F
:100C2000A0E0B0E004C08FE390E0A0E0B0E0E80E08
:100C3000F91E0A1F1B1F17FF05C016950795F7948D
:100C4000E794319687E016950795F794E7948A958F
:100C5000D1F705C0EE24FF248701EFEFF0E06E2FFF
:100C6000679566276795902F9F77D794DD24D79453
:100C70008E2F8695492F462B582F5D29B701CA0123
:100C80001F910F91FF90EF90DF900895FC01DB0121
:100C9000408151812281622F6F7770E0221F2227CD
:100CA000221F9381892F880F822B282F30E0991FD4
:100CB0009927991F11969C93119721153105A9F534
:100CC000411551056105710511F482E037C082E8D4
:100CD0009FEF13969C938E9312979A01AB0167E056
:100CE000220F331F441F551F6A95D1F783E08C9361
:100CF0000DC0220F331F441F551F12968D919C91DA
:100D00001397019713969C938E931297203080E04F
:100D1000380780E0480780E4580758F314962D936D
:100D20003D934D935C93179708952F3F310579F4C8
:100D3000411551056105710519F484E08C930895FE
:100D400064FF03C081E08C9312C01C9210C02F5727
:100D5000304013963C932E93129783E08C9387E058
:100D6000440F551F661F771F8A95D1F7706414963C
:100D70004D935D936D937C93179708951F93DC01BA
:100D8000FB019C91923008F447C08081823008F4C6
:100D900043C0943051F411961C91843099F58181AF
:100DA000682F70E0611B71093FC0843021F09230E0
:100DB00031F48230B9F18181882389F12DC01196F7
:100DC0001C9111978230F1F081811817D9F4129695
:100DD0002D913C911397828193818217930794F010
:100DE00028173907BCF014968D919D910D90BC91F8
:100DF000A02D2481358146815781281739074A075C
:100E00005B0718F4112341F00AC082179307A40767
:100E1000B50740F4112319F061E070E005C06FEFF1
:100E20007FEF02C060E070E0CB011F910895DF9377
:100E3000CF93CDB7DEB7AFE4B0E0EFE4F0E0808170
:100E40008E7F8C93AFE4B0E0EFE4F0E080818D7FA3
:100E50008C93AEE4B0E0EEE4F0E08081877F8C9389
:100E6000AEE4B0E0EEE4F0E080818F7E8C93AEE4FF
:100E7000B0E0EEE4F0E080818E7F8C93AEE4B0E0F1
:100E8000EEE4F0E080818D7F8C93AEE4B0E0EEE4A0
:100E9000F0E0808184608C93CF91DF910895DF939F
:100EA000CF93CDB7DEB7AEE4B0E0EEE4F0E0808102
:100EB00080648C93CF91DF910895DF93CF93CDB76A
:100EC000DEB7A9E5B0E0E9E5F0E0808180628C93CF
:100ED000CF91DF910895DF93CF93CDB7DEB7A9E52A
:100EE000B0E0E9E5F0E080818F7D8C93CF91DF91D8
:100EF0000895DF93CF9300D00F92CDB7DEB78983EB
:100F00008981282F30E03B832A838A819B81009747
:100F100031F02A813B812130310549F00FC0AEE428
:100F2000B0E0EEE4F0E080818F7B8C9307C0AEE40C
:100F3000B0E0EEE4F0E0808180648C930F900F903D
:100F40000F90CF91DF910895DF93CF93CDB7DEB7A8
:100F5000E6E4F0E080819181CF91DF910895DF9305
:100F6000CF9300D0CDB7DEB79A83898389819A81E8
:100F7000009731F089819A81909309028093080249
:100F80000F900F90CF91DF9108951F920F920FB69F
:100F90000F9211242F933F934F935F936F937F93FF
:100FA0008F939F93AF93BF93EF93FF93DF93CF9371
:100FB000CDB7DEB78091080290910902009729F021
:100FC000E0910802F09109020995CF91DF91FF911C
:100FD000EF91BF91AF919F918F917F916F915F91B1
:100FE0004F913F912F910F900FBE0F901F9018952A
:100FF000DF93CF93CDB7DEB7A3E5B0E0E3E5F0E054
:10100000808180648C93A3E5B0E0E3E5F0E080812B
:1010100088608C93A3E5B0E0E3E5F0E080818F7C0D
:101020008C93A3E5B0E0E3E5F0E0808180628C93EF
:10103000CF91DF910895DF93CF93CDB7DEB7A3E5CE
:10104000B0E0E3E5F0E08081887F8C93A3E5B0E039
:10105000E3E5F0E0808184608C93CF91DF91089587
:10106000DF93CF93CDB7DEB7A3E5B0E0E3E5F0E0E3
:101070008081887F8C93CF91DF910895DF93CF9308
:10108000CDB7DEB7A5970FB6F894DEBF0FBECDBFC4
:101090006D8F7E8F8F8F98A3CE0109969AA389A317
:1010A000E3EEF1E0FCA3EBA3F4E1FDA3EBA1FCA1D3
:1010B00000808BA19CA101969CA38BA3E9A1FAA11E
:1010C000008289A19AA101969AA389A39DA191501A
:1010D0009DA3EDA1EE2351F78D899E89AF89B88D2F
:1010E000BC01CD010E94A904DC01CB01BC01CD01F2
:1010F00020E030E040E851E40E941903DC01CB011C
:101100008D839E83AF83B8878D8D9E8DAF8DB8A163
:1011100028EE33E040E050E0BC01CD010E9468259C
:10112000DC01CB01BC01CD010E94A904DC01CB0193
:10113000BC01CD012D813E814F8158850E9419034C
:10114000DC01CB01BC01CD010E944900DC01CB01D7
:1011500089839A83AB83BC83A5960FB6F894DEBFD0
:101160000FBECDBFCF91DF910895DF93CF93CDB761
:10117000DEB728970FB6F894DEBF0FBECDBF6983E8
:101180007A838B839C8389819A81AB81BC818D8397
:101190009E83AF83B8878D819E81AF81B88500978C
:1011A000A105B10551F08D819E81AF81B885813057
:1011B0009105A105B10549F00FC0A9E5B0E0E9E549
:1011C000F0E0808181608C9307C0A9E5B0E0E9E59B
:1011D000F0E0808182608C9389819A81AB81BC81AF
:1011E00082309105A105B10590F4A9E5B0E0E9E5EB
:1011F000F0E08081482F29813A8181E090E0022E41
:1012000002C0880F991F0A94E2F7842B8C932896CA
:101210000FB6F894DEBF0FBECDBFCF91DF9108951A
:10122000DF93CF9300D000D0CDB7DEB769837A8348
:101230008B839C83A9E5B0E0E9E5F0E08081482F4D
:1012400029813A8181E090E0022E02C0880F991F27
:101250000A94E2F7809584238C930F900F900F905F
:101260000F90CF91DF910895DF93CF9300D000D0FE
:101270000F92CDB7DEB79A8389836B838B81282F3A
:1012800030E03D832C838C819D81009731F02C814F
:101290003D812130310541F00DC089819A819093C3
:1012A00013028093120206C089819A8190931502DD
:1012B000809314028B81882F90E0880F991FFC0186
:1012C000EE5EFD4F89819A81918380830F900F900C
:1012D0000F900F900F90CF91DF910895DF93CF93F0
:1012E00000D000D00F92CDB7DEB789838CE590E0B7
:1012F0009D838C838981882F90E0982F882724E60E
:1013000030E0B9010E948725CB0101979B838A8336
:10131000EA81FB81FF233CF48A819B819095819532
:101320009F4F9B838A838A81EC81FD8180830F900C
:101330000F900F900F900F90CF91DF910895DF9352
:10134000CF930F92CDB7DEB789830F90CF91DF9106
:1013500008951F920F920FB60F9211242F933F936F
:101360004F935F936F937F938F939F93AF93BF93AD
:10137000EF93FF93DF93CF93CDB7DEB78091160243
:1013800090911702A0911802B09119020196A11D27
:10139000B11D8093160290931702A0931802B09388
:1013A00019022091160230911702409118025091B3
:1013B000190280910A0290910B02A0910C02B09147
:1013C0000D02281739074A075B07F9F4E2E5F0E058
:1013D00080910E0290910F02A0911002B091110223
:1013E00081958083109216021092170210921802B3
:1013F000109219028091120290911302009729F025
:10140000E0911202F09113020995CF91DF91FF91C3
:10141000EF91BF91AF919F918F917F916F915F916C
:101420004F913F912F910F900FBE0F901F901895E5
:101430001F920F920FB60F9211242F933F934F9349
:101440005F936F937F938F939F93AF93BF93EF932C
:10145000FF93DF93CF93CDB7DEB7809114029091C5
:101460001502009729F0E0911402F09115020995F8
:10147000CF91DF91FF91EF91BF91AF919F918F91AC
:101480007F916F915F914F913F912F910F900FBE80
:101490000F901F901895DF93CF93CDB7DEB7AFE5D0
:1014A000B0E0EFE5F0E0808180688C937894CF9194
:1014B000DF910895DF93CF93CDB7DEB7F894CF9146
:1014C000DF910895DF93CF9300D000D0CDB7DEB782
:1014D00089836A838981282F30E03C832B838B8129
:1014E0009C818630910559F02B813C812730310554
:1014F000B1F08B819C818530910541F138C0A5E523
:10150000B0E0E5E5F0E080818C7F8C93A5E5B0E06C
:10151000E5E5F0E090818A81892B8C9328C0A5E5D0
:10152000B0E0E5E5F0E08081837F8C93A5E5B0E055
:10153000E5E5F0E08081282F8A81882F90E0880FF0
:10154000991F880F991F822B8C9311C0A4E5B0E0DE
:10155000E4E5F0E080818F7B8C93A5E5B0E0E5E5E4
:10156000F0E08081982F8A818074892B8C93898107
:101570008530B0F08981883098F4ABE5B0E0EBE5D8
:10158000F0E08081482F8981282F30E081E090E0D1
:10159000022E02C0880F991F0A94E2F7842B8C93C5
:1015A0000F900F900F900F90CF91DF910895DF93E0
:1015B000CF9300D00F92CDB7DEB789838981282FD2
:1015C00030E03B832A838A819B818630910559F0E4
:1015D0002A813B812730310571F08A819B818530DA
:1015E000910589F017C0ABE5B0E0EBE5F0E0808154
:1015F0008F7B8C930FC0ABE5B0E0EBE5F0E0808132
:101600008F778C9307C0ABE5B0E0EBE5F0E080812D
:101610008F7D8C9389818530B8F089818830A0F4E2
:10162000ABE5B0E0EBE5F0E08081482F8981282F21
:1016300030E081E090E0022E02C0880F991F0A94EA
:10164000E2F7809584238C930F900F900F90CF91A9
:10165000DF910895DF93CF9300D000D00F92CDB7E4
:10166000DEB79A8389836B838B81282F30E03D839B
:101670002C838C819D818630910559F02C813D8190
:101680002730310569F08C819D818530910579F095
:1016900014C089819A8190931B0280931A020DC015
:1016A00089819A8190931D0280931C0206C08981D2
:1016B0009A8190931F0280931E020F900F900F90BB
:1016C0000F900F90CF91DF9108951F920F920FB658
:1016D0000F9211242F933F934F935F936F937F93B8
:1016E0008F939F93AF93BF93EF93FF93DF93CF932A
:1016F000CDB7DEB780911A0290911B02009729F0B6
:10170000E0911A02F0911B020995CF91DF91FF91B0
:10171000EF91BF91AF919F918F917F916F915F9169
:101720004F913F912F910F900FBE0F901F901895E2
:101730001F920F920FB60F9211242F933F934F9346
:101740005F936F937F938F939F93AF93BF93EF9329
:10175000FF93DF93CF93CDB7DEB780911C029091BA
:101760001D02009729F0E0911C02F0911D020995DD
:10177000CF91DF91FF91EF91BF91AF919F918F91A9
:101780007F916F915F914F913F912F910F900FBE7D
:101790000F901F9018951F920F920FB60F92112461
:1017A0002F933F934F935F936F937F938F939F9369
:1017B000AF93BF93EF93FF93DF93CF93CDB7DEB794
:1017C00080911E0290911F02009729F0E0911E0265
:1017D000F0911F020995CF91DF91FF91EF91BF9199
:1017E000AF919F918F917F916F915F914F913F91B9
:1017F0002F910F900FBE0F901F901895DF93CF93EE
:10180000CDB7DEB72D970FB6F894DEBF0FBECDBFB4
:1018100089836A834B838981282F30E03D872C8719
:101820008C859D858230910509F450C02C853D85BD
:101830002330310534F48C859D858130910571F01C
:10184000ECC02C853D852330310509F477C08C85AB
:101850009D858430910509F4A9C0DFC08B81282FB4
:1018600030E03B872A878A859B85009731F02A855F
:101870003B8521303105B1F0D0C0AAE3B0E0EAE306
:10188000F0E08081482F8A81282F30E081E090E0CD
:10189000022E02C0880F991F0A94E2F780958423D4
:1018A0008C93BBC0AAE3B0E0EAE3F0E08081482F6C
:1018B0008A81282F30E081E090E0022E02C0880F5C
:1018C000991F0A94E2F7842B8C93A7C08B81282F51
:1018D00030E03987288788859985009731F02885F9
:1018E000398521303105B1F098C0A7E3B0E0E7E3D6
:1018F000F0E08081482F8A81282F30E081E090E05D
:10190000022E02C0880F991F0A94E2F78095842363
:101910008C9383C0A7E3B0E0E7E3F0E08081482F39
:101920008A81282F30E081E090E0022E02C0880FEB
:10193000991F0A94E2F7842B8C936FC08B81282F18
:1019400030E03F832E838E819F81009731F02E817E
:101950003F8121303105B1F060C0A4E3B0E0E4E3A1
:10196000F0E08081482F8A81282F30E081E090E0EC
:10197000022E02C0880F991F0A94E2F780958423F3
:101980008C934BC0A4E3B0E0E4E3F0E08081482F07
:101990008A81282F30E081E090E0022E02C0880F7B
:1019A000991F0A94E2F7842B8C9337C08B81282FE0
:1019B00030E03D832C838C819D81009731F02C8118
:1019C0003D8121303105B1F028C0A1E3B0E0E1E371
:1019D000F0E08081482F8A81282F30E081E090E07C
:1019E000022E02C0880F991F0A94E2F78095842383
:1019F0008C9313C0A1E3B0E0E1E3F0E08081482FD5
:101A00008A81282F30E081E090E0022E02C0880F0A
:101A1000991F0A94E2F7842B8C932D960FB6F894B5
:101A2000DEBF0FBECDBFCF91DF910895DF93CF937F
:101A3000CDB7DEB72D970FB6F894DEBF0FBECDBF82
:101A400089836A834B838981282F30E03D872C87E7
:101A50008C859D858230910509F450C02C853D858B
:101A60002330310534F48C859D858130910571F0EA
:101A7000ECC02C853D852330310509F477C08C8579
:101A80009D858430910509F4A9C0DFC08B81282F82
:101A900030E03B872A878A859B85009731F02A852D
:101AA0003B8521303105B1F0D0C0ABE3B0E0EBE3D2
:101AB000F0E08081482F8A81282F30E081E090E09B
:101AC000022E02C0880F991F0A94E2F780958423A2
:101AD0008C93BBC0ABE3B0E0EBE3F0E08081482F38
:101AE0008A81282F30E081E090E0022E02C0880F2A
:101AF000991F0A94E2F7842B8C93A7C08B81282F1F
:101B000030E03987288788859985009731F02885C6
:101B1000398521303105B1F098C0A8E3B0E0E8E3A1
:101B2000F0E08081482F8A81282F30E081E090E02A
:101B3000022E02C0880F991F0A94E2F78095842331
:101B40008C9383C0A8E3B0E0E8E3F0E08081482F05
:101B50008A81282F30E081E090E0022E02C0880FB9
:101B6000991F0A94E2F7842B8C936FC08B81282FE6
:101B700030E03F832E838E819F81009731F02E814C
:101B80003F8121303105B1F060C0A5E3B0E0E5E36D
:101B9000F0E08081482F8A81282F30E081E090E0BA
:101BA000022E02C0880F991F0A94E2F780958423C1
:101BB0008C934BC0A5E3B0E0E5E3F0E08081482FD3
:101BC0008A81282F30E081E090E0022E02C0880F49
:101BD000991F0A94E2F7842B8C9337C08B81282FAE
:101BE00030E03D832C838C819D81009731F02C81E6
:101BF0003D8121303105B1F028C0A2E3B0E0E2E33D
:101C0000F0E08081482F8A81282F30E081E090E049
:101C1000022E02C0880F991F0A94E2F78095842350
:101C20008C9313C0A2E3B0E0E2E3F0E08081482FA0
:101C30008A81282F30E081E090E0022E02C0880FD8
:101C4000991F0A94E2F7842B8C932D960FB6F89483
:101C5000DEBF0FBECDBFCF91DF910895DF93CF934D
:101C600000D000D000D0CDB7DEB789836A835C8313
:101C70004B838981282F30E03E832D834D815E8107
:101C80004230510559F18D819E818330910534F4A4
:101C90002D813E812130310569F05BC04D815E812F
:101CA0004330510579F18D819E818430910509F48D
:101CB0003DC04FC0E9E3F0E08081282F30E08A8109
:101CC000882F90E0A90102C0559547958A95E2F7C3
:101CD000CA018170EB81FC8180833BC0E6E3F0E0C8
:101CE0008081282F30E08A81882F90E0A90102C0EE
:101CF000559547958A95E2F7CA018170EB81FC8181
:101D0000808327C0E3E3F0E08081282F30E08A81E0
:101D1000882F90E0A90102C0559547958A95E2F772
:101D2000CA018170EB81FC81808313C0E0E3F0E0A5
:101D30008081282F30E08A81882F90E0A90102C09D
:101D4000559547958A95E2F7CA018170EB81FC8130
:101D5000808326960FB6F894DEBF0FBECDBFCF911D
:101D6000DF910895DF93CF9300D000D0CDB7DEB7D9
:101D700089836A838981282F30E03C832B838B8180
:101D80009C818230910551F12B813C8123303105BA
:101D900034F48B819C818130910561F05AC02B8194
:101DA0003C812330310571F18B819C818430910518
:101DB000E9F14FC0ABE3B0E0EBE3F0E08081482F06
:101DC0008A81282F30E081E090E0022E02C0880F47
:101DD000991F0A94E2F784278C933BC0A8E3B0E0F4
:101DE000E8E3F0E08081482F8A81282F30E081E00D
:101DF00090E0022E02C0880F991F0A94E2F7842710
:101E00008C9327C0A5E3B0E0E5E3F0E08081482FA4
:101E10008A81282F30E081E090E0022E02C0880FF6
:101E2000991F0A94E2F784278C9313C0A2E3B0E0D1
:101E3000E2E3F0E08081482F8A81282F30E081E0C2
:101E400090E0022E02C0880F991F0A94E2F78427BF
:101E50008C930F900F900F900F90CF91DF9108957A
:101E6000DF93CF9300D0CDB7DEB789836A83A6E234
:101E7000B0E0E6E2F0E08081887F8C93A6E2B0E0FB
:101E8000E6E2F0E090818981892B8C93A6E2B0E0B4
:101E9000E6E2F0E08081877F8C93A7E2B0E0E7E2A2
:101EA000F0E080818F7D8C93A7E2B0E0E7E2F0E084
:101EB00080818F738C93A7E2B0E0E7E2F0E080814D
:101EC00080648C93A6E2B0E0E6E2F0E08081806876
:101ED0008C930F900F90CF91DF910895DF93CF9364
:101EE00000D00F92CDB7DEB78B83A7E2B0E0E7E278
:101EF000F0E08081807E8C93A7E2B0E0E7E2F0E042
:101F000090818B81892B8C93A6E2B0E0E6E2F0E031
:101F1000808180648C93E6E2F0E0808182958695F2
:101F200086958370882F90E081709070009799F368
:101F3000E4E2F0E0808191819A83898389819A81AA
:101F40000F900F900F90CF91DF910895DF93CF9373
:101F5000CDB7DEB781E060E040E00E94FE0B87E095
:101F600061E00E94300FCF91DF910895DF93CF930E
:101F7000CDB7DEB727970FB6F894DEBF0FBECDBF43
:101F800080E00E946E0F9F838E838E819F81CC01A3
:101F9000A0E0B0E028E833E140E050E0BC01CD0132
:101FA0000E946825DC01CB01072E7AE0B695A79543
:101FB000979587957A95D1F7702D8A839B83AC830B
:101FC000BD838A819B81AC81BD812AE030E040E005
:101FD00050E0BC01CD010E949A25DA01C901898334
:101FE000898127960FB6F894DEBF0FBECDBFCF9183
:101FF000DF910895DF93CF9300D00F92CDB7DEB776
:1020000089838981282F30E03B832A838A819B81C1
:102010008130910579F02A813B812230310581F0B0
:102020008A819B81009789F483E060E041E00E940F
:10203000FE0B0BC083E062E041E00E94FE0B05C096
:1020400083E061E041E00E94FE0B0F900F900F9043
:10205000CF91DF910895DF93CF9300D00F92CDB74A
:10206000DEB789838981282F30E03B832A838A81E8
:102070009B818130910579F02A813B8122303105A5
:1020800081F08A819B81009789F483E060E041E0E0
:102090000E94160D0BC083E062E041E00E94160D25
:1020A00005C083E061E041E00E94160D0F900F90A3
:1020B0000F90CF91DF910895DF93CF9300D00F92CF
:1020C000CDB7DEB789838981282F30E03B832A830F
:1020D0008A819B818130910579F02A813B81223070
:1020E000310581F08A819B81009789F483E060E06B
:1020F00040E00E94160D0BC083E062E040E00E94C9
:10210000160D05C083E061E040E00E94160D0F90BF
:102110000F900F90CF91DF910895DF93CF9300D070
:102120000F92CDB7DEB789838981282F30E03B83BA
:102130002A838A819B818130910571F02A813B81BC
:102140002230310571F08A819B81009771F483E020
:1021500060E00E94B20E09C083E062E00E94B20E0D
:1021600004C083E061E00E94B20E0F900F900F90C8
:10217000CF91DF9108950F931F93DF93CF93CDB746
:10218000DEB7C455D0400FB6F894DEBF0FBECDBF4A
:1021900080E00E942B1082E00E942B10FE01EF5A7B
:1021A000FF4F80E090E0AAEFB3E480839183A283A5
:1021B000B3838E01035B1F4FFE01EF5AFF4F608117
:1021C00071818281938120E030E04AE755E40E94EA
:1021D0001F02DC01CB01F80180839183A283B383CA
:1021E000FE01E35BFF4F608171818281938120E07A
:1021F00030E040E85FE30E942504882344F4FE01B8
:10220000E55BFF4F81E090E09183808364C0FE0135
:10221000E35BFF4F608171818281938120E03FEF1A
:102220004FE757E40E94C50318160CF043C0FE01A7
:10223000EF5AFF4F608171818281938120E030E00D
:1022400040E251E40E941F02DC01CB018E01055BDC
:102250001F4FBC01CD010E944900DC01CB01F801F8
:10226000918380831FC0FE01E75BFF4F80E991E00F
:1022700091838083FE01E75BFF4F8081918101970D
:10228000F1F7FE01E75BFF4F91838083DE01A55BE1
:10229000BF4FFE01E55BFF4F808191810197119651
:1022A0009C938E93FE01E55BFF4F808191810097A7
:1022B000D1F627C08E01055B1F4FFE01E35BFF4F88
:1022C00060817181828193810E944900DC01CB0190
:1022D000F80191838083DE01A95BBF4FFE01E55BBE
:1022E000FF4F808191818D939C93FE01E95BFF4FAD
:1022F000808191810197F1F7FE01E95BFF4F9183A6
:10230000808380E00E945C1082E00E945C10FE01ED
:10231000ED5BFF4F80E090E0AAEFB3E48083918310
:10232000A283B3838E01015C1F4FFE01ED5BFF4F63
:10233000608171818281938120E030E04AE755E439
:102340000E941F02DC01CB01F80180839183A283EC
:10235000B383FE01FF96608171818281938120E0C9
:1023600030E040E85FE30E94250488232CF481E0FC
:1023700090E09EAF8DAF46C0FE01FF9660817181F7
:102380008281938120E03FEF4FE757E40E94C5032D
:10239000181664F5FE01ED5BFF4F6081718182814B
:1023A000938120E030E040E251E40E941F02DC0112
:1023B000CB01BC01CD010E944900DC01CB019EAFE5
:1023C0008DAF0FC080E991E09CAF8BAF8BAD9CAD22
:1023D0000197F1F79CAF8BAF8DAD9EAD01979EAF8E
:1023E0008DAF8DAD9EAD009769F716C0FE01FF96CB
:1023F00060817181828193810E944900DC01CB015F
:102400009EAF8DAF8DAD9EAD9AAF89AF89AD9AADC0
:102410000197F1F79AAF89AF82E00E942B1081E01B
:102420000E942B1080E090E0AAEFB3E48DAB9EAB4E
:10243000AFABB8AF6DA97EA98FA998AD20E030E011
:102440004AE755E40E941F02DC01CB0189AB9AAB3D
:10245000ABABBCAB69A97AA98BA99CA920E030E001
:1024600040E85FE30E94250488232CF481E090E09B
:1024700098AB8FA73FC069A97AA98BA99CA920E036
:102480003FEF4FE757E40E94C50318164CF56DA9BE
:102490007EA98FA998AD20E030E040E251E40E948F
:1024A0001F02DC01CB01BC01CD010E944900DC010F
:1024B000CB0198AB8FA70FC080E991E09EA78DA7B5
:1024C0008DA59EA50197F1F79EA78DA78FA598A929
:1024D000019798AB8FA78FA598A9009769F714C0AB
:1024E00069A97AA98BA99CA90E944900DC01CB01AA
:1024F00098AB8FA78FA598A99CA78BA78BA59CA508
:102500000197F1F79CA78BA782E00E945C1081E005
:102510000E945C1080E090E0AAEFB3E48FA398A73C
:10252000A9A7BAA76FA178A589A59AA520E030E050
:102530004AE755E40E941F02DC01CB018BA39CA358
:10254000ADA3BEA36BA17CA18DA19EA120E030E034
:1025500040E85FE30E94250488232CF481E090E0AA
:102560009AA389A33FC06BA17CA18DA19EA120E06D
:102570003FEF4FE757E40E94C50318164CF56FA1D3
:1025800078A589A59AA520E030E040E251E40E94B8
:102590001F02DC01CB01BC01CD010E944900DC011E
:1025A000CB019AA389A30FC080E991E098A38F8FF4
:1025B0008F8D98A10197F1F798A38F8F89A19AA188
:1025C00001979AA389A389A19AA1009769F714C0DA
:1025D0006BA17CA18DA19EA10E944900DC01CB01D1
:1025E0009AA389A389A19AA19E8F8D8F8D8D9E8D8F
:1025F0000197F1F79E8F8D8F80E00E942B1081E074
:102600000E942B1080E090E0AAEFB3E4898F9A8FAC
:10261000AB8FBC8F698D7A8D8B8D9C8D20E030E0E7
:102620004AE755E40E941F02DC01CB018D8B9E8B93
:10263000AF8BB88F6D897E898F89988D20E030E0CF
:1026400040E85FE30E94250488232CF481E090E0B9
:102650009C8B8B8B3FC06D897E898F89988D20E004
:102660003FEF4FE757E40E94C50318164CF5698DFC
:102670007A8D8B8D9C8D20E030E040E251E40E9409
:102680001F02DC01CB01BC01CD010E944900DC012D
:10269000CB019C8B8B8B0FC080E991E09A8B898B4F
:1026A00089899A890197F1F79A8B898B8B899C8903
:1026B00001979C8B8B8B8B899C89009769F714C041
:1026C0006D897E898F89988D0E944900DC01CB013C
:1026D0009C8B8B8B8B899C89988B8F878F85988916
:1026E0000197F1F7988B8F8780E00E945C1081E062
:1026F0000E945C1080E090E0AAEFB3E48B879C8797
:10270000AD87BE876B857C858D859E8520E030E01A
:102710004AE755E40E941F02DC01CB018F839887B2
:10272000A987BA876F81788589859A8520E030E00E
:1027300040E85FE30E94250488232CF481E090E0C8
:102740009E838D833FC06F81788589859A8520E03F
:102750003FEF4FE757E40E94C50318164CF56B8511
:102760007C858D859E8520E030E040E251E40E942A
:102770001F02DC01CB01BC01CD010E944900DC013C
:10278000CB019E838D830FC080E991E09C838B8376
:102790008B819C810197F1F79C838B838D819E8136
:1027A00001979E838D838D819E81009769F714C068
:1027B0006F81788589859A850E944900DC01CB016B
:1027C0009E838D838D819E819A83898389819A815D
:1027D0000197F1F79A838983CC5ADF4F0FB6F894AB
:1027E000DEBF0FBECDBFCF91DF911F910F91089536
:1027F0000F931F93DF93CF93CDB7DEB7C455D0406F
:102800000FB6F894DEBF0FBECDBF80E00E942B1044
:10281000FE01EF5AFF4F80E090E0AAEFB3E480831F
:102820009183A283B3838E01035B1F4FFE01EF5A96
:10283000FF4F608171818281938120E030E04AE71F
:1028400055E40E941F02DC01CB01F80180839183D3
:10285000A283B383FE01E35BFF4F608171818281BC
:10286000938120E030E040E85FE30E942504882364
:1028700044F4FE01E55BFF4F81E090E091838083AB
:1028800064C0FE01E35BFF4F6081718182819381AF
:1028900020E03FEF4FE757E40E94C50318160CF005
:1028A00043C0FE01EF5AFF4F6081718182819381A5
:1028B00020E030E040E251E40E941F02DC01CB0145
:1028C0008E01055B1F4FBC01CD010E944900DC0158
:1028D000CB01F801918380831FC0FE01E75BFF4FAE
:1028E00080E991E091838083FE01E75BFF4F808167
:1028F00091810197F1F7FE01E75BFF4F91838083A0
:10290000DE01A55BBF4FFE01E55BFF4F808191813A
:10291000019711969C938E93FE01E55BFF4F80819A
:1029200091810097D1F627C08E01055B1F4FFE01F4
:10293000E35BFF4F60817181828193810E94490036
:10294000DC01CB01F80191838083DE01A95BBF4FDD
:10295000FE01E55BFF4F808191818D939C93FE0189
:10296000E95BFF4F808191810197F1F7FE01E95BFF
:10297000FF4F9183808380E00E945C10FE01ED5B3D
:10298000FF4F80E090E0AAEFB3E480839183A283BD
:10299000B3838E01015C1F4FFE01ED5BFF4F608131
:1029A00071818281938120E030E04AE755E40E9402
:1029B0001F02DC01CB01F80180839183A283B383E2
:1029C000FE01FF96608171818281938120E030E079
:1029D00040E85FE30E94250488232CF481E090E026
:1029E0009EAF8DAF46C0FE01FF96608171818281EE
:1029F000938120E03FEF4FE757E40E94C50318168C
:102A000064F5FE01ED5BFF4F6081718182819381EE
:102A100020E030E040E251E40E941F02DC01CB01E3
:102A2000BC01CD010E944900DC01CB019EAF8DAFFE
:102A30000FC080E991E09CAF8BAF8BAD9CAD01974F
:102A4000F1F79CAF8BAF8DAD9EAD01979EAF8DAF73
:102A50008DAD9EAD009769F716C0FE01FF966081AF
:102A60007181828193810E944900DC01CB019EAF7C
:102A70008DAF8DAD9EAD9AAF89AF89AD9AAD0197FF
:102A8000F1F79AAF89AF82E00E942B1080E090E0CE
:102A9000AAEFB3E48DAB9EABAFABB8AF6DA97EA987
:102AA0008FA998AD20E030E04AE755E40E941F026C
:102AB000DC01CB0189AB9AABABABBCAB69A97AA902
:102AC0008BA99CA920E030E040E85FE30E94250448
:102AD00088232CF481E090E098AB8FA73FC069A9D0
:102AE0007AA98BA99CA920E03FEF4FE757E40E9409
:102AF000C50318164CF56DA97EA98FA998AD20E0E5
:102B000030E040E251E40E941F02DC01CB01BC0135
:102B1000CD010E944900DC01CB0198AB8FA70FC00B
:102B200080E991E09EA78DA78DA59EA50197F1F75D
:102B30009EA78DA78FA598A9019798AB8FA78FA562
:102B400098A9009769F714C069A97AA98BA99CA9CB
:102B50000E944900DC01CB0198AB8FA78FA598A9F3
:102B60009CA78BA78BA59CA50197F1F79CA78BA78A
:102B700082E00E945C1080E090E0AAEFB3E48FA3B3
:102B800098A7A9A7BAA76FA178A589A59AA520E0BB
:102B900030E04AE755E40E941F02DC01CB018BA321
:102BA0009CA3ADA3BEA36BA17CA18DA19EA120E09F
:102BB00030E040E85FE30E94250488232CF481E0A4
:102BC00090E09AA389A33FC06BA17CA18DA19EA197
:102BD00020E03FEF4FE757E40E94C50318164CF57D
:102BE0006FA178A589A59AA520E030E040E251E4E4
:102BF0000E941F02DC01CB01BC01CD010E944900F3
:102C0000DC01CB019AA389A30FC080E991E098A3CE
:102C10008F8F8F8D98A10197F1F798A38F8F89A13E
:102C20009AA101979AA389A389A19AA1009769F70C
:102C300014C06BA17CA18DA19EA10E944900DC0162
:102C4000CB019AA389A389A19AA19E8F8D8F8D8D87
:102C50009E8D0197F1F79E8F8D8F81E00E942B1042
:102C600080E090E0AAEFB3E4898F9A8FAB8FBC8F9E
:102C7000698D7A8D8B8D9C8D20E030E04AE755E49C
:102C80000E941F02DC01CB018D8B9E8BAF8BB88F16
:102C90006D897E898F89988D20E030E040E85FE380
:102CA0000E94250488232CF481E090E09C8B8B8B80
:102CB0003FC06D897E898F89988D20E03FEF4FE777
:102CC00057E40E94C50318164CF5698D7A8D8B8DDB
:102CD0009C8D20E030E040E251E40E941F02DC01C4
:102CE000CB01BC01CD010E944900DC01CB019C8BD2
:102CF0008B8B0FC080E991E09A8B898B89899A89A7
:102D00000197F1F79A8B898B8B899C8901979C8B12
:102D10008B8B8B899C89009769F714C06D897E899C
:102D20008F89988D0E944900DC01CB019C8B8B8B95
:102D30008B899C89988B8F878F8598890197F1F76C
:102D4000988B8F8781E00E945C1080E090E0AAEF72
:102D5000B3E48B879C87AD87BE876B857C858D852B
:102D60009E8520E030E04AE755E40E941F02DC0126
:102D7000CB018F839887A987BA876F8178858985EA
:102D80009A8520E030E040E85FE30E942504882334
:102D90002CF481E090E09E838D833FC06F81788525
:102DA00089859A8520E03FEF4FE757E40E94C503ED
:102DB00018164CF56B857C858D859E8520E030E06E
:102DC00040E251E40E941F02DC01CB01BC01CD01B5
:102DD0000E944900DC01CB019E838D830FC080E9F6
:102DE00091E09C838B838B819C810197F1F79C837D
:102DF0008B838D819E8101979E838D838D819E81A2
:102E0000009769F714C06F81788589859A850E943B
:102E10004900DC01CB019E838D838D819E819A8345
:102E2000898389819A810197F1F79A838983CC5AA2
:102E3000DF4F0FB6F894DEBF0FBECDBFCF91DF914D
:102E40001F910F910895DF93CF93CDB7DEB76C97A5
:102E50000FB6F894DEBF0FBECDBF80E00E942B10EE
:102E600082E00E942B1081E00E942B1080E090E015
:102E7000AAEFB3E4898F9A8FAB8FBC8F698D7A8D5F
:102E80008B8D9C8D20E030E04AE755E40E941F02C4
:102E9000DC01CB018D8B9E8BAF8BB88F6D897E89CA
:102EA0008F89988D20E030E040E85FE30E942504A0
:102EB00088232CF481E090E09C8B8B8B3FC06D8944
:102EC0007E898F89988D20E03FEF4FE757E40E947D
:102ED000C50318164CF5698D7A8D8B8D9C8D20E07D
:102EE00030E040E251E40E941F02DC01CB01BC0152
:102EF000CD010E944900DC01CB019C8B8B8B0FC064
:102F000080E991E09A8B898B89899A890197F1F7F9
:102F10009A8B898B8B899C8901979C8B8B8B8B8956
:102F20009C89009769F714C06D897E898F89988D77
:102F30000E944900DC01CB019C8B8B8B8B899C8987
:102F4000988B8F878F8598890197F1F7988B8F875A
:102F500080E00E945C1082E00E945C1081E00E9490
:102F60005C1080E090E0AAEFB3E48B879C87AD878C
:102F7000BE876B857C858D859E8520E030E04AE7A5
:102F800055E40E941F02DC01CB018F839887A9873B
:102F9000BA876F81788589859A8520E030E040E89E
:102FA0005FE30E94250488232CF481E090E09E8357
:102FB0008D833FC06F81788589859A8520E03FEFBA
:102FC0004FE757E40E94C50318164CF56B857C85C6
:102FD0008D859E8520E030E040E251E40E941F0292
:102FE000DC01CB01BC01CD010E944900DC01CB0119
:102FF0009E838D830FC080E991E09C838B838B81BE
:103000009C810197F1F79C838B838D819E81019731
:103010009E838D838D819E81009769F714C06F8197
:10302000788589859A850E944900DC01CB019E83C1
:103030008D838D819E819A83898389819A8101976D
:10304000F1F79A8389836C960FB6F894DEBF0FBEB2
:10305000CDBFCF91DF910895DF93CF93CDB7DEB78A
:10306000AA970FB6F894DEBF0FBECDBF81E061E036
:1030700041E00E94FE0B81E062E041E00E94FE0B15
:1030800081E066E041E00E94FE0B81E065E041E006
:103090000E94FE0B81E064E041E00E94FE0B81E0B3
:1030A00063E041E00E94FE0B80E090E0ACE0B2E41F
:1030B0008FA398A7A9A7BAA76FA178A589A59AA554
:1030C00020E030E04AE755E40E941F02DC01CB011A
:1030D0008BA39CA3ADA3BEA36BA17CA18DA19EA13C
:1030E00020E030E040E85FE30E94250488232CF4D0
:1030F00081E090E09AA389A33FC06BA17CA18DA140
:103100009EA120E03FEF4FE757E40E94C503181649
:103110004CF56FA178A589A59AA520E030E040E2A2
:1031200051E40E941F02DC01CB01BC01CD010E94D1
:103130004900DC01CB019AA389A30FC080E991E08B
:1031400098A38F8F8F8D98A10197F1F798A38F8FF8
:1031500089A19AA101979AA389A389A19AA100970D
:1031600069F714C06BA17CA18DA19EA10E944900AA
:10317000DC01CB019AA389A389A19AA19E8F8D8F8F
:103180008D8D9E8D0197F1F79E8F8D8F81E061E08F
:1031900040E00E94160D81E062E040E00E94160DC2
:1031A00081E066E040E00E94160D81E065E040E0CD
:1031B0000E94160D81E064E041E00E94160D81E05E
:1031C00063E040E00E94160D81E062E041E00E9471
:1031D000160D80E090E0A0E8BFE3898F9A8FAB8F57
:1031E000BC8F698D7A8D8B8D9C8D20E030E04AE715
:1031F00055E40E941F02DC01CB018D8B9E8BAF8BAF
:10320000B88F6D897E898F89988D20E030E040E805
:103210005FE30E94250488232CF481E090E09C8BDE
:103220008B8B3FC06D897E898F89988D20E03FEF21
:103230004FE757E40E94C50318164CF5698D7A8D47
:103240008B8D9C8D20E030E040E251E40E941F0213
:10325000DC01CB01BC01CD010E944900DC01CB01A6
:103260009C8B8B8B0FC080E991E09A8B898B89892D
:103270009A890197F1F79A8B898B8B899C890197A1
:103280009C8B8B8B8B899C89009769F714C06D8907
:103290007E898F89988D0E944900DC01CB019C8B2F
:1032A0008B8B8B899C89988B8F878F8598890197C9
:1032B000F1F7988B8F8781E062E040E00E94160D65
:1032C00080E090E0A0EAB0E48B879C87AD87BE8762
:1032D0006B857C858D859E8520E030E04AE755E44E
:1032E0000E941F02DC01CB018F839887A987BA87D0
:1032F0006F81788589859A8520E030E040E85FE33A
:103300000E94250488232CF481E090E09E838D8325
:103310003FC06F81788589859A8520E03FEF4FE730
:1033200057E40E94C50318164CF56B857C858D8586
:103330009E8520E030E040E251E40E941F02DC0163
:10334000CB01BC01CD010E944900DC01CB019E8371
:103350008D830FC080E991E09C838B838B819C815E
:103360000197F1F79C838B838D819E8101979E83CA
:103370008D838D819E81009769F714C06F81788558
:1033800089859A850E944900DC01CB019E838D834B
:103390008D819E819A83898389819A810197F1F732
:1033A0009A83898388E20E94F9198EE00E94F919B4
:1033B00081E00E94F91986E00E94F919AA960FB6D9
:1033C000F894DEBF0FBECDBFCF91DF910895DF939C
:1033D000CF930F92CDB7DEB7898381E061E041E002
:1033E0000E94160D89810E94131B0F90CF91DF91CF
:1033F0000895DF93CF930F92CDB7DEB7898381E035
:1034000061E040E00E94160D89810E94131B0F901D
:10341000CF91DF910895DF93CF9300D0CDB7DEB782
:103420009A8389830AC0E981FA8180810E94E71921
:1034300089819A8101969A838983E981FA818081C1
:10344000882389F70F900F90CF91DF910895DF9334
:10345000CF93CDB7DEB781E00E94F919CF91DF910C
:1034600008950F931F93DF93CF93CDB7DEB72F97B8
:103470000FB6F894DEBF0FBECDBF6C877D878E87F9
:103480009F878AE0FE013296DF01982F1D929A9560
:10349000E9F719828C859D85AE85BF850097A105CA
:1034A000B10521F480E30E94E71969C08C859D85F0
:1034B000AE85BF85BB230CF042C08DE20E94E719A8
:1034C0008C859D85AE85BF85B095A095909581959D
:1034D0009F4FAF4FBF4F8C879D87AE87BF872FC051
:1034E0008981082F112707FD10958C859D85AE8554
:1034F000BF852AE030E040E050E0BC01CD010E94F1
:10350000BC25DC01CB01282FCE010296FC01E00F87
:10351000F11F20838C859D85AE85BF852AE030E034
:1035200040E050E0BC01CD010E94BC25DA01C90198
:103530008C879D87AE87BF8789818F5F89838C85C4
:103540009D85AE85BF850097A105B10549F68981A6
:103550008150898311C08981282F332727FD309519
:10356000CE010296FC01E20FF31F8081805D0E9474
:10357000E7198981815089838981882364F72F968F
:103580000FB6F894DEBF0FBECDBFCF91DF911F9174
:103590000F910895DF93CF9300D000D0CDB7DEB761
:1035A00089836A838981882319F089818130D9F4DC
:1035B0008A818031C0F48981282F30E03C832B83BD
:1035C0008B819C81009731F02B813C81213031052A
:1035D00031F009C08A8180580E94F91904C08A819B
:1035E00080540E94F9190F900F900F900F90CF9177
:1035F000DF910895DF93CF9300D00F92CDB7DEB760
:103600009A8389836B830F900F900F90CF91DF91F6
:103610000895DF93CF930F92CDB7DEB789830F90D4
:10362000CF91DF910895DF93CF93CDB7DEB7E997C0
:103630000FB6F894DEBF0FBECDBF89AF81E062E068
:1036400040E00E94160D89AD82958F70982F917081
:1036500081E063E0492F0E94160D89AD8295869521
:103660008770982F917081E064E0492F0E94160DB9
:1036700089AD8295869586958370982F917081E0AB
:1036800065E0492F0E94160D89AD982F991F992743
:10369000991F81E066E0492F0E94160D81E062E0EB
:1036A00041E00E94160D80E090E0A0E8BFE38DAB02
:1036B0009EABAFABB8AF6DA97EA98FA998AD20E046
:1036C00030E04AE755E40E941F02DC01CB0189ABE0
:1036D0009AABABABBCAB69A97AA98BA99CA920E03A
:1036E00030E040E85FE30E94250488232CF481E069
:1036F00090E098AB8FA73FC069A97AA98BA99CA934
:1037000020E03FEF4FE757E40E94C50318164CF541
:103710006DA97EA98FA998AD20E030E040E251E488
:103720000E941F02DC01CB01BC01CD010E944900B7
:10373000DC01CB0198AB8FA70FC080E991E09EA779
:103740008DA78DA59EA50197F1F79EA78DA78FA5A3
:1037500098A9019798AB8FA78FA598A9009769F7AB
:1037600014C069A97AA98BA99CA90E944900DC010F
:10377000CB0198AB8FA78FA598A99CA78BA78BA5EA
:103780009CA50197F1F79CA78BA781E062E040E040
:103790000E94160D80E090E0A0EAB0E48FA398A705
:1037A000A9A7BAA76FA178A589A59AA520E030E0BE
:1037B0004AE755E40E941F02DC01CB018BA39CA3C6
:1037C000ADA3BEA36BA17CA18DA19EA120E030E0A2
:1037D00040E85FE30E94250488232CF481E090E018
:1037E0009AA389A33FC06BA17CA18DA19EA120E0DB
:1037F0003FEF4FE757E40E94C50318164CF56FA141
:1038000078A589A59AA520E030E040E251E40E9425
:103810001F02DC01CB01BC01CD010E944900DC018B
:10382000CB019AA389A30FC080E991E098A38F8F61
:103830008F8D98A10197F1F798A38F8F89A19AA1F5
:1038400001979AA389A389A19AA1009769F714C047
:103850006BA17CA18DA19EA10E944900DC01CB013E
:103860009AA389A389A19AA19E8F8D8F8D8D9E8DFC
:103870000197F1F79E8F8D8F89AD982F917081E020
:1038800063E0492F0E94160D89AD8695982F91709F
:1038900081E064E0492F0E94160D89AD86958695DA
:1038A000982F917081E065E0492F0E94160D89AD37
:1038B000869586958695982F917081E066E0492FD0
:1038C0000E94160D81E062E041E00E94160D80E04A
:1038D00090E0A0E8BFE3898F9A8FAB8FBC8F698D92
:1038E0007A8D8B8D9C8D20E030E04AE755E40E9474
:1038F0001F02DC01CB018D8B9E8BAF8BB88F6D8946
:103900007E898F89988D20E030E040E85FE30E9457
:10391000250488232CF481E090E09C8B8B8B3FC0A6
:103920006D897E898F89988D20E03FEF4FE757E4BE
:103930000E94C50318164CF5698D7A8D8B8D9C8D70
:1039400020E030E040E251E40E941F02DC01CB01A4
:10395000BC01CD010E944900DC01CB019C8B8B8B0B
:103960000FC080E991E09A8B898B89899A890197A8
:10397000F1F79A8B898B8B899C8901979C8B8B8B18
:103980008B899C89009769F714C06D897E898F891E
:10399000988D0E944900DC01CB019C8B8B8B8B891D
:1039A0009C89988B8F878F8598890197F1F7988BE1
:1039B0008F8781E062E040E00E94160D80E090E099
:1039C000A0EAB0E48B879C87AD87BE876B857C853A
:1039D0008D859E8520E030E04AE755E40E941F0275
:1039E000DC01CB018F839887A987BA876F8178859F
:1039F00089859A8520E030E040E85FE30E94250455
:103A000088232CF481E090E09E838D833FC06F81FA
:103A1000788589859A8520E03FEF4FE757E40E943B
:103A2000C50318164CF56B857C858D859E8520E039
:103A300030E040E251E40E941F02DC01CB01BC01F6
:103A4000CD010E944900DC01CB019E838D830FC014
:103A500080E991E09C838B838B819C810197F1F7B6
:103A60009C838B838D819E8101979E838D838D8125
:103A70009E81009769F714C06F81788589859A8542
:103A80000E944900DC01CB019E838D838D819E8144
:103A90009A83898389819A810197F1F79A8389832F
:103AA000E9960FB6F894DEBF0FBECDBFCF91DF9180
:103AB0000895DF93CF93CDB7DEB782E064E041E0B5
:103AC0000E94FE0B82E065E041E00E94FE0B82E076
:103AD00066E041E00E94FE0B82E067E041E00E9468
:103AE000FE0B84E062E040E00E94FE0B84E063E0B5
:103AF00040E00E94FE0B84E064E040E00E94FE0B88
:103B000084E065E040E00E94FE0B84E062E041E07A
:103B10000E94160D84E063E041E00E94160D84E0EF
:103B200064E041E00E94160D84E065E041E00E94FF
:103B3000160D82E064E041E00E94160D82E065E02F
:103B400041E00E94160D82E066E041E00E94160D01
:103B500082E067E041E00E94160DCF91DF91089569
:103B6000DF93CF93CDB7DEB7A8970FB6F894DEBF3B
:103B70000FBECDBF8FEF898BCE0142969DA38CA344
:103B8000E7EFF1E0FFA3EEA3F0E1F8A7EEA1FFA1BC
:103B900000808EA19FA101969FA38EA3ECA1FDA101
:103BA00000828CA19DA101969DA38CA398A5915004
:103BB00098A7E8A5EE2351F784E0888BC9C082E07E
:103BC000688940E00E94160D82E08F87B5C09E0193
:103BD0002E5D3F4F84E06F85A9010E942E0E8AA1C1
:103BE000882309F0A6C080E090E0A8ECB2E48B87BF
:103BF0009C87AD87BE876B857C858D859E8520E003
:103C000030E04AE755E40E941F02DC01CB018F83BC
:103C10009887A987BA876F81788589859A8520E0FA
:103C200030E040E85FE30E94250488232CF481E023
:103C300090E09E838D833FC06F81788589859A85CA
:103C400020E03FEF4FE757E40E94C50318164CF5FC
:103C50006B857C858D859E8520E030E040E251E4D7
:103C60000E941F02DC01CB01BC01CD010E94490072
:103C7000DC01CB019E838D830FC080E991E09C83A2
:103C80008B838B819C810197F1F79C838B838D8142
:103C90009E8101979E838D838D819E81009769F718
:103CA00014C06F81788589859A850E944900DC015E
:103CB000CB019E838D838D819E819A8389838981A7
:103CC0009A810197F1F79A8389839E012E5D3F4F78
:103CD00084E06F85A9010E942E0E8AA1882349F5F0
:103CE00008C09E012E5D3F4F84E06F85A9010E94B0
:103CF0002E0E8AA18823A9F38889882F90E09C0141
:103D0000245030408F85882F90E0AC0142505040C5
:103D1000220F331F220F331FCE010196820F931FF4
:103D2000840F951FFC01719680818AA3FAA1FBA3E1
:103D300015C08F858F5F8F878F85863008F447CFBA
:103D400082E0688941E00E94160D88898F5F888B28
:103D50008889883008F433CF89898BA38BA1A896F2
:103D60000FB6F894DEBF0FBECDBFCF91DF9108959F
:103D7000DF93CF93CDB7DEB70E94591D0E942C1858
:103D800081E00E94FA0F80E00E94FA0F82E00E9418
:103D9000FA0F83E064E041E00E94FE0BCF91DF91D7
:103DA0000895DF93CF93CDB7DEB782E063E041E0C3
:103DB0000E94FE0B84E066E040E00E94FE0B83E080
:103DC00065E041E00E94FE0B0E944F070E945D07E4
:103DD00083EF9EE10E94AF070E944B0A0E941707E3
:103DE000CF91DF910895DF93CF93CDB7DEB7809168
:103DF0002402882351F40E94A40790932102809307
:103E0000200280E00E9479070DC080912402813059
:103E100049F40E94A407909323028093220281E038
:103E20000E947907809124028F5F80932402CF91B2
:103E3000DF910895DF93CF93CDB7DEB72E970FB6FE
:103E4000F894DEBF0FBECDBF83E065E041E00E9485
:103E5000160D80E090E0A0E2B1E48B879C87AD87EF
:103E6000BE876B857C858D859E8520E030E04AE7A6
:103E700055E40E941F02DC01CB018F839887A9873C
:103E8000BA876F81788589859A8520E030E040E89F
:103E90005FE30E94250488232CF481E090E09E8358
:103EA0008D833FC06F81788589859A8520E03FEFBB
:103EB0004FE757E40E94C50318164CF56B857C85C7
:103EC0008D859E8520E030E040E251E40E941F0293
:103ED000DC01CB01BC01CD010E944900DC01CB011A
:103EE0009E838D830FC080E991E09C838B838B81BF
:103EF0009C810197F1F79C838B838D819E81019733
:103F00009E838D838D819E81009769F714C06F8198
:103F1000788589859A850E944900DC01CB019E83C2
:103F20008D838D819E819A83898389819A8101976E
:103F3000F1F79A83898383E065E040E00E94160DE3
:103F4000809124028230E0F3109224022091220218
:103F5000309123028091200290912102A901481BF7
:103F6000590BCA0190932602809325028091250265
:103F70009091260282959295907F9827807F98272E
:103F8000CC01A0E0B0E0BC01CD010E94A904DC019D
:103F9000CB01BC01CD0120E034E244E759E40E94AA
:103FA0001903DC01CB018093270290932802A09390
:103FB0002902B0932A028091270290912802A091B1
:103FC0002902B0912A02BC01CD0120E030E040E09E
:103FD00050E40E941903DC01CB01BC01CD0120E0BB
:103FE0003CEF45E057E40E941F02DC01CB01BC011D
:103FF000CD010E942226DC01CB01BC01CD010E9433
:104000004900DC01CB0180932B0290932C02A093FA
:104010002D02B0932E0280912B0290912C02A09140
:104020002D02B0912E022E960FB6F894DEBF0FBE71
:10403000CDBFCF91DF910895DF93CF93CDB7DEB79A
:104040006C970FB6F894DEBF0FBECDBF80E690E050
:104050000E940B1A80E090E0AAEFB3E4898F9A8F58
:10406000AB8FBC8F698D7A8D8B8D9C8D20E030E07D
:104070004AE755E40E941F02DC01CB018D8B9E8B29
:10408000AF8BB88F6D897E898F89988D20E030E065
:1040900040E85FE30E94250488232CF481E090E04F
:1040A0009C8B8B8B3FC06D897E898F89988D20E09A
:1040B0003FEF4FE757E40E94C50318164CF5698D92
:1040C0007A8D8B8D9C8D20E030E040E251E40E949F
:1040D0001F02DC01CB01BC01CD010E944900DC01C3
:1040E000CB019C8B8B8B0FC080E991E09A8B898BE5
:1040F00089899A890197F1F79A8B898B8B899C8999
:1041000001979C8B8B8B8B899C89009769F714C0D6
:104110006D897E898F89988D0E944900DC01CB01D1
:104120009C8B8B8B8B899C89988B8F878F859889AB
:104130000197F1F7988B8F870E94271A8AE690E003
:104140000E940B1A80E090E0AAEFB3E48B879C8773
:10415000AD87BE876B857C858D859E8520E030E0B0
:104160004AE755E40E941F02DC01CB018F83988748
:10417000A987BA876F81788589859A8520E030E0A4
:1041800040E85FE30E94250488232CF481E090E05E
:104190009E838D833FC06F81788589859A8520E0D5
:1041A0003FEF4FE757E40E94C50318164CF56B85A7
:1041B0007C858D859E8520E030E040E251E40E94C0
:1041C0001F02DC01CB01BC01CD010E944900DC01D2
:1041D000CB019E838D830FC080E991E09C838B830C
:1041E0008B819C810197F1F79C838B838D819E81CC
:1041F00001979E838D838D819E81009769F714C0FE
:104200006F81788589859A850E944900DC01CB0100
:104210009E838D838D819E819A83898389819A81F2
:104220000197F1F79A83898381E060E00E94CA1ABE
:104230006C960FB6F894DEBF0FBECDBFCF91DF9165
:104240000895DF93CF9300D0CDB7DEB71A828FEFFA
:10425000898314C00E94B01D898389818F3F71F0CA
:104260008A81882F90E0FC01E15DFD4F8981808388
:104270008AE20E94E7198A818F5F8A838A8185306A
:1042800048F30E94271A0F900F90CF91DF91089565
:10429000DF93CF93CDB7DEB761970FB6F894DEBF4B
:1042A0000FBECDBF198A81E0888B0E94212181E059
:1042B000888B1F869BC08F85882F90E0FC01E15D75
:1042C000FD4F20818F85882F90E0FC01E252FE4F48
:1042D0008081281709F487C089E790E00E940B1AB3
:1042E00081E060E00E94CA1A8FE790E00E940B1AFA
:1042F00080E090E0A6E9B3E48B879C87AD87BE871A
:104300006B857C858D859E8520E030E04AE755E40D
:104310000E941F02DC01CB018F839887A987BA878F
:104320006F81788589859A8520E030E040E85FE3F9
:104330000E94250488232CF481E090E09E838D83E5
:104340003FC06F81788589859A8520E03FEF4FE7F0
:1043500057E40E94C50318164CF56B857C858D8546
:104360009E8520E030E040E251E40E941F02DC0123
:10437000CB01BC01CD010E944900DC01CB019E8331
:104380008D830FC080E991E09C838B838B819C811E
:104390000197F1F79C838B838D819E8101979E838A
:1043A0008D838D819E81009769F714C06F81788518
:1043B00089859A850E944900DC01CB019E838D830B
:1043C0008D819E819A83898389819A810197F1F7F2
:1043D0009A8389830E94271A188A89898F5F898B1B
:1043E0000E94271A07C08F858F5F8F878F85853042
:1043F00008F461CF8989833020F48889882309F4FF
:1044000054CF888961960FB6F894DEBF0FBECDBF3A
:10441000CF91DF910895DF93CF93CDB7DEB761974A
:104420000FB6F894DEBF0FBECDBF8FEF8F870E940F
:10443000B01D8F878F858F3F09F49BC08F85282FF4
:1044400030E0398B288B888999898133910531F047
:10445000288939892233310561F08BC082E00E94BE
:104460002B1081E00E942B108DE890E00E940B1A27
:1044700080C00E94271A82E00E945C1081E00E94A6
:104480005C1089E990E00E940B1A80E090E0A6E9B8
:10449000B3E48B879C87AD87BE876B857C858D85D4
:1044A0009E8520E030E04AE755E40E941F02DC01CF
:1044B000CB018F839887A987BA876F817885898593
:1044C0009A8520E030E040E85FE30E9425048823DD
:1044D0002CF481E090E09E838D833FC06F817885CE
:1044E00089859A8520E03FEF4FE757E40E94C50396
:1044F00018164CF56B857C858D859E8520E030E017
:1045000040E251E40E941F02DC01CB01BC01CD015D
:104510000E944900DC01CB019E838D830FC080E99E
:1045200091E09C838B838B819C810197F1F79C8325
:104530008B838D819E8101979E838D838D819E814A
:10454000009769F714C06F81788589859A850E94E4
:104550004900DC01CB019E838D838D819E819A83EE
:10456000898389819A810197F1F79A8389830E94CF
:10457000271A61960FB6F894DEBF0FBECDBFCF915C
:10458000DF910895DF93CF93CDB7DEB784E060E08D
:1045900041E00E94FE0B84E061E041E00E94FE0BDE
:1045A0000E94F8070E941B0882E063E041E00E943D
:1045B000FE0BCF91DF910895DF93CF9300D00F9240
:1045C000CDB7DEB789838981282F30E03B832A83EA
:1045D0008A819B8182309105C1F02A813B81233001
:1045E000310509F18A819B818130910549F580E08F
:1045F0000E946E0984E060E040E00E94160D84E0B5
:1046000061E040E00E94160D1BC082E30E946E092B
:1046100084E060E040E00E94160D84E061E041E04B
:104620000E94160D0DC084E60E946E0984E060E0D1
:1046300040E00E94160D84E061E041E00E94160D0A
:104640000F900F900F90CF91DF910895DF93CF934C
:10465000CDB7DEB7EB970FB6F894DEBF0FBECDBF78
:104660001BAE0E94B81E0E94A60F0E94D11E0E947F
:10467000C2220E94271A0E941C200E9448218BAF50
:10468000FFC00E94271A8BAD882309F0F6C086EA86
:1046900090E00E940B1A80E00E942B1080E090E4D2
:1046A000ACE9B5E48DAB9EABAFABB8AF6DA97EA95D
:1046B0008FA998AD20E030E04AE755E40E941F0240
:1046C000DC01CB0189AB9AABABABBCAB69A97AA9D6
:1046D0008BA99CA920E030E040E85FE30E9425041C
:1046E00088232CF481E090E098AB8FA73FC069A9A4
:1046F0007AA98BA99CA920E03FEF4FE757E40E94DD
:10470000C50318164CF56DA97EA98FA998AD20E0B8
:1047100030E040E251E40E941F02DC01CB01BC0109
:10472000CD010E944900DC01CB0198AB8FA70FC0DF
:1047300080E991E09EA78DA78DA59EA50197F1F731
:104740009EA78DA78FA598A9019798AB8FA78FA536
:1047500098A9009769F714C069A97AA98BA99CA99F
:104760000E944900DC01CB0198AB8FA78FA598A9C7
:104770009CA78BA78BA59CA50197F1F79CA78BA75E
:104780000E94271A80E00E945C1082EB90E00E9459
:104790000B1A80E090E0AAE7B4E48FA398A7A9A73A
:1047A000BAA76FA178A589A59AA520E030E04AE7CD
:1047B00055E40E941F02DC01CB018BA39CA3ADA397
:1047C000BEA36BA17CA18DA19EA120E030E040E8BA
:1047D0005FE30E94250488232CF481E090E09AA3F3
:1047E00089A33FC06BA17CA18DA19EA120E03FEFDA
:1047F0004FE757E40E94C50318164CF56FA178A542
:1048000089A59AA520E030E040E251E40E941F0211
:10481000DC01CB01BC01CD010E944900DC01CB01D0
:104820009AA389A30FC080E991E098A38F8F8F8D01
:1048300098A10197F1F798A38F8F89A19AA1019769
:104840009AA389A389A19AA1009769F714C06BA1C3
:104850007CA18DA19EA10E944900DC01CB019AA3FD
:1048600089A389A19AA19E8F8D8F8D8D9E8D019791
:10487000F1F79E8F8D8F0E94271A0E9448218BAFDF
:104880008BAD882309F4FDCE80EC90E00E940B1ADA
:1048900080E090E0AAE7B4E4898F9A8FAB8FBC8F59
:1048A000698D7A8D8B8D9C8D20E030E04AE755E450
:1048B0000E941F02DC01CB018D8B9E8BAF8BB88FCA
:1048C0006D897E898F89988D20E030E040E85FE334
:1048D0000E94250488232CF481E090E09C8B8B8B34
:1048E0003FC06D897E898F89988D20E03FEF4FE72B
:1048F00057E40E94C50318164CF5698D7A8D8B8D8F
:104900009C8D20E030E040E251E40E941F02DC0177
:10491000CB01BC01CD010E944900DC01CB019C8B85
:104920008B8B0FC080E991E09A8B898B89899A895A
:104930000197F1F79A8B898B8B899C8901979C8BC6
:104940008B8B8B899C89009769F714C06D897E8950
:104950008F89988D0E944900DC01CB019C8B8B8B49
:104960008B899C89988B8F878F8598890197F1F720
:10497000988B8F870E94271A83E064E041E00E94B1
:10498000160D80E060E00E94CA1A0E940B220E946D
:10499000B60F8AAF81E062E00E94CA1A8FEC90E005
:1049A0000E940B1A8AAD882F90E0A0E0B0E0BC0115
:1049B000CD010E94311A80E090E0AAEFB3E48B872A
:1049C0009C87AD87BE876B857C858D859E8520E025
:1049D00030E04AE755E40E941F02DC01CB018F83DF
:1049E0009887A987BA876F81788589859A8520E01D
:1049F00030E040E85FE30E94250488232CF481E046
:104A000090E09E838D833FC06F81788589859A85EC
:104A100020E03FEF4FE757E40E94C50318164CF51E
:104A20006B857C858D859E8520E030E040E251E4F9
:104A30000E941F02DC01CB01BC01CD010E94490094
:104A4000DC01CB019E838D830FC080E991E09C83C4
:104A50008B838B819C810197F1F79C838B838D8164
:104A60009E8101979E838D838D819E81009769F73A
:104A700014C06F81788589859A850E944900DC0180
:104A8000CB019E838D838D819E819A8389838981C9
:104A90009A810197F1F79A8389830E94271A8AAD38
:104AA0008A3120F481E00E94DC226BCF8AAD8A310A
:104AB00038F08AAD833220F482E00E94DC2261CF9C
:104AC0008AAD833208F45DCF83E00E94DC2259CFA7
:104AD000629FD001739FF001829FE00DF11D649FE2
:104AE000E00DF11D929FF00D839FF00D749FF00D6E
:104AF000659FF00D9927729FB00DE11DF91F639F0F
:104B0000B00DE11DF91FBD01CF011124089597FBE0
:104B1000092E07260AD077FD04D049D006D0002000
:104B20001AF4709561957F4F0895F6F790958195E9
:104B30009F4F0895A1E21A2EAA1BBB1BFD010DC0B9
:104B4000AA1FBB1FEE1FFF1FA217B307E407F5073D
:104B500020F0A21BB30BE40BF50B661F771F881F19
:104B6000991F1A9469F760957095809590959B01AF
:104B7000AC01BD01CF01089597FB092E05260ED08B
:104B800057FD04D0D7DF0AD0001C38F4509540956B
:104B9000309521953F4F4F4F5F4F0895F6F7909511
:104BA0008095709561957F4F8F4F9F4F0895AA1BF9
:104BB000BB1B51E107C0AA1FBB1FA617B70710F008
:104BC000A61BB70B881F991F5A95A9F7809590953A
:104BD000BC01CD0108952F923F924F925F926F9248
:104BE0007F928F929F92AF92BF92CF92DF92EF927D
:104BF000FF920F931F93CF93DF93CDB7DEB7CA1BFE
:104C0000DB0B0FB6F894DEBF0FBECDBF09942A8828
:104C1000398848885F846E847D848C849B84AA84D0
:104C2000B984C884DF80EE80FD800C811B81AA815D
:104C3000B981CE0FD11D0FB6F894DEBF0FBECDBF28
:104C4000ED0108953BD080F09F3740F491110EF4B0
:104C50004DC060E070E080E89FE3089526F01B16E9
:104C6000611D711D811D01C01BC0882371F4772354
:104C700021F09850872B762F07C0662311F49927CF
:104C80000DC09051862B70E060E02AF09A95660F77
:104C9000771F881FDAF7880F9695879597F90895FB
:104CA0009F3F31F0915020F4879577956795B795A0
:104CB000880F911D9695879597F9089525D0A0F0B6
:104CC000BEE7B91788F4BB279F3860F41616B11DEC
:104CD000672F782F8827985FF7CF86957795679508
:104CE000B11D93959639C8F30895E894BB276627BC
:104CF0007727CB0197F9089557FD9058440F551F1A
:104D000059F05F3F71F04795880F97FB991F61F04D
:104D10009F3F79F087950895121613061406551FC4
:104D2000F2CF4695F1DF08C0161617061806991F30
:104D3000F1CF86957105610508940895F894FFCF29
:104D400048454C4C4F204D522000456E74657220F2
:104D500070617373776F72640057726F6E67007261
:104D60006520656E7472652070617373005E4C49D6
:104D7000474854204F4E205E005E4C49474854201F
:104D80004F4646205E0053595354454D20686F6C82
:104D90006400524520454E54524520504153530023
:104DA00057454C434F4D4520444541522021005426
:104DB000454D50203A0000000000000000000001B6
:104DC00002020303030304040404040404040505A9
:104DD0000505050505050505050505050505060681
:104DE0000606060606060606060606060606060663
:104DF0000606060606060606060606060606070751
:104E00000707070707070707070707070707070732
:104E10000707070707070707070707070707070722
:104E20000707070707070707070707070707070712
:104E30000707070707070707070707070707080800
:104E400008080808080808080808080808080808E2
:104E500008080808080808080808080808080808D2
:104E600008080808080808080808080808080808C2
:104E700008080808080808080808080808080808B2
:104E800008080808080808080808080808080808A2
:104E90000808080808080808080808080808080892
:104EA0000808080808080808080808080808080882
:104EB000080808080808080808080808080831321F
:104EC00033343501000000080000004000000000FD
:104ED000010000000400003738392B3435362D31FD
:084EE00032332A41302F3D005E
:00000001FF
